:020000040800F2
:10000000982800204D020008D9880008BD6100082A
:10001000C9850008D10A000869AA00085F02000823
:10002000000000000000000000000000C98A000875
:10003000F50A000800000000DD880008DD930008D4
:1000400069020008690200086902000869020008E4
:1000500069020008690200086902000869020008D4
:1000600069020008690200086902000869020008C4
:1000700069020008690200086902000869020008B4
:1000800069020008690200086902000869020008A4
:100090006902000869020008690200086902000894
:1000A0006902000869020008690200086902000884
:1000B0006902000869020008690200086902000874
:1000C0006902000869020008690200086902000864
:1000D0006902000869020008690200086902000854
:1000E0006902000869020008690200086902000844
:1000F0006902000869020008690200086902000834
:100100006902000869020008690200086902000823
:100110006902000869020008690200086902000813
:100120006902000869020008690200086902000803
:1001300069020008690200080000000021AA000806
:1001400069020008690200086902000869020008E3
:1001500069020008690200086902000869020008D3
:100160006902000869020008690200080000000036
:100170006902000869020008690200080000000026
:1001800069020008690200086902000869020008A3
:100190006902000869020008690200086902000893
:1001A000696200084D620008690200080000000052
:1001B0006902000869020008690200086902000873
:1001C0006902000869020008690200086902000863
:1001D0006902000869020008690200086902000853
:1001E000000000000000000000000000690200089C
:1001F00069020008000000006902000869020008A6
:100200006902000869020008B17B00086902000861
:100210006902000869020008000000006902000885
:10022000000000000000000000000000690200085B
:100230006902000869020008DFF80CD000F0A2F89B
:1002400000480047C9AF00089828002007488047A9
:1002500007480047FEE7FEE7FEE7FEE7FEE7FEE7AA
:10026000FEE7FEE7FEE7FEE7FEE700001596000862
:10027000390200082DE9F05F0546002092469B46B2
:1002800088460646814640241BE0284641464746AC
:10029000224600F067F853465A46C01A914110D3DF
:1002A00011461846224600F04EF82D1A67EB010859
:1002B0004F4622460120002100F045F817EB0009C7
:1002C0004E41201EA4F10104DFDC484631462A4697
:1002D0004346BDE8F09F40EA01039B0703D009E0D5
:1002E00008C9121F08C0042AFAD203E011F8013B22
:1002F00000F8013B521EF9D27047D2B201E000F87B
:10030000012B491EFBD270470022F6E710B51346B9
:100310000A4604461946FFF7F0FF204610BD421C6E
:1003200010F8011B0029FBD1801A704730B5044634
:100330000020034600E05B1C934203D2E05CCD5CEE
:10034000401BF8D030BD202A04DB203A00FA02F12D
:10035000002070479140C2F1200320FA03F31943B3
:1003600090407047202A04DB203A21FA02F0002155
:10037000704721FA02F3D040C2F1200291400843B5
:10038000194670471CB50948009009480190054678
:10039000009C06E0E06840F0010394E807009847FD
:1003A0001034AC42F6D3FFF74BFF000074960408FC
:1003B000A496040830B58C1810F8012B12F00F0326
:1003C00001D110F8013B120906D110F8012B03E00E
:1003D00010F8015B01F8015B5B1EF9D101E001F847
:1003E000013B521EFBD1A142E6D3002030BD0000EC
:1003F0000146C06A40F0C000C862086840F4982016
:10040000086008680A68800662F31E0080F00040F9
:10041000086008680A68C00860F39E7282F0804233
:1004200000200A6070470000F0B5ABB01546528B53
:100430001F46B2F5807F11D340F27006C2F200066B
:1004400034790123012C8DF8A5308DF8A93017D10E
:100450008DF8A8302B69022B19D323E040F27003EA
:10046000C2F200031E79012E16D101268DF8A56077
:10047000ADF8A86000261E712B69022B07D311E08E
:1004800000248DF8A84033712B69022B0AD2002377
:100490008DF8A63030E000BF00238DF8A5302B6921
:1004A000022BF4D340F2100CC2F2000CDCF8006016
:1004B0000124012E8DF8A64008D14FF48073ADF8C9
:1004C000AA300223CCF8003016E000BF9E428DF81F
:1004D000AA4009D1FF2A07D800238DF8AB300123A9
:1004E000CCF8003008E000BF0123FF2A8DF8AB30C4
:1004F0009CBF731CCCF800302190086829681D90BF
:1005000007F148001F9002208DF8A700288B0126D4
:10051000ADF8A000E868259122901CA801A91C96BE
:10052000ADF8A22006F0EEFC10B130462BB0F0BDC5
:1005300001A8394600F002FB20B1012630462BB05D
:10054000F0BD00BF309E3946304600F07BFE18B14A
:10055000012630462BB0F0BD686940F27005C2F24A
:100560000005A969084405211C9120901CA801A937
:1005700006F0C8FC20B1012630462BB0F0BD00BF0C
:1005800007F1240401A8214600F0D8FA20B1012681
:1005900030462BB0F0BD00BF3046214600F052FE81
:1005A00020B1012630462BB0F0BD00BF28790026CF
:1005B000A969002818BF01F1FF00A86130462BB0DF
:1005C000F0BD0000F0B5ABB01546528B1F46B2F53A
:1005D000807F11D340F27006C2F200063478012306
:1005E000012C8DF8A5308DF8A93017D18DF8A830E1
:1005F0002B69022B19D323E040F27003C2F20003EF
:100600001E78012E16D101268DF8A560ADF8A860E0
:1006100000261E702B69022B07D311E000248DF8F1
:10062000A84033702B69022B0AD200238DF8A63024
:1006300030E000BF00238DF8A5302B69022BF4D3E6
:1006400040F2100CC2F2000CDCF800600124012E14
:100650008DF8A64008D14FF48073ADF8AA3002237C
:10066000CCF8003016E000BF9E428DF8AA4009D1B8
:10067000FF2A07D800238DF8AB300123CCF80030D7
:1006800008E000BF0123FF2A8DF8AB309CBF731C2C
:10069000CCF80030219008680126CDE91C6007F1F4
:1006A00048001F90288B2968ADF8A000E8682591C4
:1006B00022901CA801A98DF8A760ADF8A22006F031
:1006C00021FC18B130462BB0F0BD00BF01A839465F
:1006D00000F034FA20B1012630462BB0F0BD00BF47
:1006E000309E3946304600F0ADFD18B10126304647
:1006F0002BB0F0BD686940F27005C2F20005A96830
:10070000084404211C9120901CA801A906F0FAFBC2
:1007100020B1012630462BB0F0BD00BF07F1240404
:1007200001A8214600F00AFA20B1012630462BB07C
:10073000F0BD00BF3046214600F084FD20B1012607
:1007400030462BB0F0BD00BF28780026A9680028ED
:1007500018BF01F1FF00A86030462BB0F0BD0000CB
:1007600046F2B9220146C0F6000200204A637047F3
:1007700080B588B001EBC101D0F8153002EB8101E2
:10078000027DCDF819308DF8182090E80C500069E2
:1007900001AF059001A887E80C5006F0C1FE0028C3
:1007A00018BF012008B080BD80B584B001EBC10145
:1007B00002EB8101D0E900238068039001A8CDE914
:1007C000012306F0DBFE002818BF012004B080BD25
:1007D00040F23000C2F20000002101804160704709
:1007E0002DE9F04F87B040F23006C2F200063078B3
:1007F000012805D140F64C00C2F2000008F0E4FDEB
:1008000071780020DFE811F0060058005C00440019
:100810000C0100BF4CF27720C0F600000BF07CFA10
:1008200040F20000C2F20000002000BF06F0C0FE4F
:1008300004F09AFD07F0E4F888B940F63804C4F2F1
:10084000026400BF012002F057FB206840F0010065
:10085000206008F04DFE07F0D3F80028F2D004F035
:100860000FFD08F045FE07F067F9142000F0D4FFF3
:1008700007F022FE07F0BEF8002800F097804CF247
:10088000C820C0F600000BF047FA0120C8E000BF06
:10089000642000F0C1FF06F1080008F069F9044681
:1008A00001F0C0F97168002CA0EB010154D06BA0DD
:1008B0000AF098FEB3E000BF06F01CFB0220AFE098
:1008C000307850BB07F082FE00281CBF69A00BF0F7
:1008D00023FA07F033FE06F1080440F23431C2F285
:1008E0000001204608F0F2F80AF0B2F896F8381045
:1008F00066A00AF077FE0020307340F64C00C2F28A
:100900000000214608F012FD0124347396F83820C7
:10091000014665A00AF066FE347007F00FFE0AF08B
:1009200097F806F1080008F099F9142000F074FF18
:1009300001F078F9044640F2C830C2F2000006AA7D
:10094000602107F04BFE98B14CF2B420C0F60000D5
:100950000BF0E2F963E000BFB1F5FA5F61D396F8FE
:10096000381037A00AF03EFE002086F8390056E025
:1009700001F058F9BDF81810A0EB040808460AF079
:10098000BFFC4CF2DC25BDF818100028C0F60005AD
:1009900018BF0546032913D14CF2C410C0F600005D
:1009A00041462A4603230AF01DFE38E04CF2FF10B0
:1009B000C0F6000060210AF015FE012030E000BF03
:1009C0009DF81AB00020307301F02CF940F64C0964
:1009D000BDF818109DF81A20C2F200098246484658
:1009E0005B4608F0D3FB074601F01CF9BDF8184040
:1009F000A0EB0A0A484608F093FC96F838C0CDE907
:100A000002074CF21F20C0F60000414652462B461A
:100A1000CDE9004BCDF810C00AF0E4FD27B1042069
:100A2000707007B0BDE8F08F01F0FCF870604CF218
:100A30009C20C0F600000BF06FF90320F0E700BF28
:100A4000766F6963653A2074696D656F757420739C
:100A5000743D3078253032580D0A0000766F696396
:100A6000653A20646F6E652028256C756D73290DBD
:100A70000A0000004E616E6F4564676520696E690B
:100A800074206661696C65640D000000696E6665BE
:100A9000723A2073796E363238382073743D30786C
:100AA000253032580D0A0000696E6665723A20766C
:100AB0006F69636520696E6974207474733D256481
:100AC0002073743D3078253032580D0A0000000044
:100AD000FEE7000041EA00031343002908BF114666
:100AE000002818BF014681EA0300000C18BF01204E
:100AF000704700007047000040F2A02072B6C2F2BA
:100B00000000006843F60001C4F2010188420DD1E3
:100B100040F2A0204BF68451C2F20000C0F6000162
:100B200019224FF47A7305F06FFA00BFFEE7000058
:100B300000680069C0F307407047000000284FF0CC
:100B4000010218BF002901D110467047B0B5D0E9A5
:100B500004C2C369D0F818E01A43C36B1A4342EACF
:100B60000C0242EA0E020A6003789B0616D5D0E911
:100B700009C34FF07C75D0F82CE0846B05EB035370
:100B80004FF47C7505EB0C1503F07C7344EA0E04FE
:100B900005F47C7523432B431A430A604268036BB8
:100BA00040F27F252A401A434A60C368B3F5007FAC
:100BB00005D0B3F5806F04D10578AD0601D51A4391
:100BC0004A60436C43B1856C046C05F03F052243D9
:100BD00042EA05421A434A60B0F8683040F2000C1D
:100BE0008B600278C0F2FF7C920722D5C56C4FF073
:100BF00080540CEB054505EA0C052B438B60056D15
:100C000004EAD5054FF000542B448B60456D04EA8F
:100C100095054FF080442B448B60856D04EA5505A3
:100C20002B448B60C56DB5F1FF3FDCBF03F1004382
:100C30008B60036ECB60436E0B6103689D0703D42A
:100C40004FF4A06029E000BF036D0CF1C052002BEF
:100C500048BF5B426FF35F334B61456D2C04002D41
:100C600048BF05FB02F422401A434A61836D0CF130
:100C70007845002B48BF5B429AB28A61C36D1C0461
:100C8000002B48BF03FB05F422438A6103689807E1
:100C90004FF4E06058BF4FF4A06018430022086290
:100CA000BDE8B0401046704770B5044600F0BAFF8A
:100CB000002C04BF012070BD0546206840F6FF717E
:100CC000426920EA010642F006014161206841695B
:100CD000C9070BD000F0A6FF401B0628F6D3102052
:100CE000A065032084F85400012070BD40F24F61DC
:100CF000C5F2020188424FF00001416101600164C8
:100D000041648164C1640165C16711DC40F24F71C7
:100D1000C4F2020188421BDC40F25061C4F20201BD
:100D200088422DD040F2D061C4F2020126E000BF1B
:100D300040F24F71C5F20201884215DC40F2506169
:100D4000C5F2020188421BD040F2D06114E000BF1E
:100D500040F25071C4F20201884211D040F2D071C9
:100D6000C4F202010AE000BF40F2D071C5F20201F4
:100D7000884205D040F25071C5F20201884202D18A
:100D800000214165816500F57B61C1F3C412012139
:100D9000736801FA02F223EA020272604FF4FE4223
:100DA000C260626F0020C4E91800A066E066206798
:100DB00012B1117310616067E06D00281CBF002044
:100DC000E06500202065A06584F8540084F84C009C
:100DD00070BD000000284FF0010218BF002901D1AA
:100DE0001046704791F820C042F20002C0F800C0DF
:100DF0000B68C0F6004203F0080303610B6803F4BC
:100E0000002343610B6803F0030383610B6803F461
:100E10004033C3610B68C3F30513013343620B68AE
:100E2000C3F30553013383620B6803F04023C362AD
:100E30000B681A4082630A6802F4C052C2634B68AE
:100E40009A0509D403F07F0242604A79520754BFE1
:100E500000224FF4806202E04FF400724260C260F0
:100E60004A685FEA8C7302F4006282604A6802F4A6
:100E7000404202644A6802F040724264CA8802F04A
:100E80003F0282644A6802F0404202630A89826635
:100E90000CD40122C264CA68026609690022416654
:100EA000C0E91422C0E916221046704780B54A896D
:100EB0006FF3DF220132C264CA6802660A694266C1
:100EC0004B696FF35F330365B1F816C06FF35F3C96
:100ED000C0F854C0D1F808E05FEACE0203D55A4208
:100EE0000265D1F808E05FEA8E0244BFCCF100024F
:100EF0004265B1F818E0C0F858E08A694FEA124C30
:100F0000C0F85CC08A68530003D5CEF10002826548
:100F10008A68B2F1FF3FBDE88040C4BF002070473F
:100F2000CCF10001C165002070470000B0B5044657
:100F300000F078FE002C04BF0120B0BD0021054662
:100F4000206884F84C10022184F85410416941F063
:100F50000601416120684169C9070BD000F062FEBB
:100F6000401B0528F6D9012003221021A16584F831
:100F70005420B0BDD4E90E124F23C5F202039842AB
:100F800042EA010240F24F61C5F202011CDC40F26C
:100F90004F43C4F20203984232DC40F24F23C4F2C2
:100FA0000203984256DC40F24F13C4F20203984207
:100FB00000F394805023C4F20203984200F0E880CA
:100FC000D023C4F20203E1E040F24F43C5F2020332
:100FD00098422DDC40F24F23C5F2020398424BDCCD
:100FE00040F24F13C5F20203984200F3838050236E
:100FF000C5F20203984200F0CB80D023C4E000BFCA
:1010000040F24F63C4F20203984245DC40F24F5372
:10101000C4F20203984277DC40F25043C4F2020368
:10102000984200F0B58040F2D043C4F20203ADE034
:10103000884243DC40F24F53C5F2020398426FDC12
:1010400040F25043C5F20203984200F0A18040F202
:10105000D04399E040F24F33C4F20203984269DC76
:1010600040F25023C4F20203984200F0918040F213
:10107000D023C4F2020389E040F24F33C5F20203E9
:10108000984263DC40F25023C5F20203984200F01C
:101090007F8040F2D02377E040F24F73C4F2020326
:1010A00098425DDC40F25063C4F2020398426FD074
:1010B00040F2D063C4F2020368E000BF40F24F7315
:1010C000C5F20203984257DC40F25063C5F20203B6
:1010D00098425DD040F2D06356E000BF40F250131A
:1010E000C4F20203984253D040F2D013C4F2020378
:1010F0004CE000BF40F25013C5F20203984247D0C3
:1011000040F2D01340E000BF40F25053C4F202035B
:1011100098423DD040F2D053C4F2020336E000BF03
:1011200040F25053C5F20203984231D040F2D053FE
:101130002AE000BF40F25033C4F20203984227D0A5
:1011400040F2D033C4F2020320E000BF40F250333B
:10115000C5F2020398421BD040F2D03314E000BF26
:1011600040F25073C4F20203984211D040F2D0739F
:10117000C4F202030AE000BF40F2D073C5F20203DA
:10118000984205D040F25073C5F20203984201D153
:10119000236C1A434369884223F4430342EA03025F
:1011A00042614FF000020264636C43648264C26473
:1011B000026511DC40F24F71C4F2020188421BDC6F
:1011C00040F25061C4F2020188422DD040F2D06159
:1011D000C4F2020126E000BF40F24F71C5F20201E5
:1011E000884215DC40F25061C5F2020188421BD0F2
:1011F00040F2D06114E000BF40F25071C4F202012D
:10120000884211D040F2D071C4F202010AE000BF5E
:1012100040F2D071C5F20201884205D040F250710F
:10122000C5F20201884202D1002141658165002199
:10123000C167A06C012220650020A16584F85420BC
:10124000B0BD0000024600284FF0010018BF002981
:1012500000D170475069012804D104201061012099
:10126000704700BF2DE9F041146815462046002262
:101270000E46FFF72FFC28B1052028610120BDE8AC
:10128000F08100BF54B1216A326A514009062946F3
:1012900008D0042008610120BDE8F08129462E60B5
:1012A00071E000BF304640F2000E8E684FEA520CEB
:1012B000CFF6010E02F002026CF3596E002E02F11D
:1012C000050347D04FF6FC72771E04EA020542D0B0
:1012D0004FF6FF72023E24EA0202032E07F00308D3
:1012E0001CD327F003074FF6FC76154355F823501F
:1012F000043F05EA060545EA020555F8235005EACC
:10130000060545EA020555F8235005EA060545EAB3
:10131000020555F8235005EA0605E6D1B8F1000F9D
:1013200019D0154355F823504FF6FC76B8F1010F4C
:1013300005EA06050FD0154355F82350B8F1020F02
:1013400005EA060507D02A4352F823204FF6FC751C
:10135000154000E000254FF6FF724F6824EA0202B4
:101360006CF39A6E42EA050237B14FF6FC763740CD
:1013700047EA0E0740F823704FF6FC77384040EA02
:101380000E0042F8230088680122013088600020A6
:1013900008610A73BDE8F08100284FF0010218BF10
:1013A000002901D11046704790F8542090F854302D
:1013B000022B18BF052A07D140218165002180F842
:1013C0004C100120704700BF0A7B022A04D1012281
:1013D0000A611046704700BF026840F24F63C5F2D1
:1013E00002039A4210DC40F24F73C4F202039A42A5
:1013F0001ADC40F25063C4F202039A422CD040F24D
:10140000D063C4F2020325E040F24F73C5F2020339
:101410009A4215DC40F25063C5F202039A421BD097
:1014200040F2D06314E000BF40F25073C4F20203F4
:101430009A4211D040F2D073C4F202030AE000BF16
:1014400040F25073C5F202039A4205D040F2D073C5
:10145000C5F202039A420DD1036D4A68812B03D174
:1014600022B1416700207047002AFAD004200861A9
:10147000012070470A6892F820209207ECD50320DB
:101480000861012070470000002845D0436F002B01
:1014900042D080B590F85410D0F800E00129DEF871
:1014A00014C004D0022939D11CF4803136D090F810
:1014B0005410012924D190F84C1001294FF0020159
:1014C00025D0012280F84C2080F854101973002197
:1014D0008165196118680022016ACFF60102490886
:1014E00061F3596261F39A624FF6FF7120EA0101DC
:1014F000CEF800104FF6FC7108401044CEF87C0086
:10150000DEF81400002140F00100CEF81400BDE820
:1015100080400846704700BF012070474021816528
:10152000002180F84C100121BDE88040084670473A
:10153000B0B5044600F076FB002C04BF0120B0BD1E
:10154000054694F85400022824D12068416941F0EE
:1015500004014161052084F8540000BF2168086936
:1015600080041FD400F05EFB401B0628F6D3A06D5C
:1015700040F01000A065032084F8540094F8500057
:1015800000064FF0010001D5616F0873002184F857
:101590004C10B0BD2020A0650120002184F84C1023
:1015A000B0BD00BF4869012240F00200486104203C
:1015B00084F854004FF4FE40C86084F8542094F836
:1015C000500000064FF00000E0D5636F1A73886486
:1015D000002184F84C10B0BD80B190F8541002295D
:1015E0000AD1042180F85410006842F204024169D3
:1015F000114341610020704720218165012070471F
:10160000024600284FF0010008BF7047CB0612D5F4
:10161000136840F6FF7223EA020203F57B63C3F30B
:10162000C41301F0110198401129516814BF21EA37
:1016300000000843506000207047000090F85400FC
:101640007047000010B504680C23214604F57B6246
:1016500063F30B01C2F3C4120968D140C9074BD030
:101660002169490544BF61695FEA415146D4216956
:10167000090544BF61695FEA015147D42169C90482
:1016800044BF61695FEAC14148D42169490444BF4C
:1016900061695FEA414149D42169890544BF6169B3
:1016A0005FEA81514AD42169890444BF61695FEAD4
:1016B00081414FD42169C90544BF61695FEAC151C5
:1016C00064D4816DC1B101684A6942F002024A6185
:1016D000012180F8541090F85020120644BF426F48
:1016E0001173816E0022002980F84C2008BF10BDC4
:1016F000BDE81040084700BF10BD00BF4FF4806137
:10170000E160816D41F001018165B0E74FF4006156
:10171000E160816D41F002018165AFE74FF48051D6
:10172000E160816D41F004018165AEE74FF48041D5
:10173000E160816D41F008018165ADE74FF4007112
:10174000E160426E002AAED00446904720462468ED
:10175000A9E700BF4FF40051E16090F8541004294C
:101760001ED16169012221F400516161616941F07A
:101770000201616180F8542090F85010090603D5E9
:10178000416F0A730021A164C16EABE790F850105D
:10179000090611D4A16CD9B900F1540216E000BFBA
:1017A000052180F85410026F002A3FF483AF0446ED
:1017B0009047204624687DE7E16F49B9A16C39B9AB
:1017C000012180F85410416F01F10C0201211170C8
:1017D0004FF44071E160016E0022002980F84C2036
:1017E0003FF46FAF0446884720466AE7002804BFED
:1017F00001207047034690F8540001284FF0010083
:1018000008D1042988BF704701F03F0003EB800036
:101810000266002070470000B0B5044600F002FAEE
:10182000054640F20800C2F200000078611C18BFB3
:10183000044400BF00F0F6F9401BA042FAD3B0BD4B
:10184000002908BF70472DE9F04F84B040F2000B2B
:10185000C4F2026B584502917ED047F67F72C0F207
:101860002F0202EA90224FF0000A019200F12002BA
:1018700000270025012400922DE000BF036803210A
:1018800001FA05F6334303606FF0030101EA5803E0
:10189000009907F01C0C51F803E00F2202FA0CF239
:1018A0002EEA0202CA508268B243826042680399FB
:1018B00022EA01014160C168B143C160029931FA75
:1018C00004F204F1010405F1020507F104070AF12D
:1018D000080A00F08180A4F10108012202FA08F24E
:1018E00012EA010CEBD042F20001C4F20261039251
:1018F00001F1600928F003060AF0180B0F2159F8CE
:10190000066001FA0BFE019906EA0E0601FA0BF3D6
:101910009E42B3D142F20001C4F20261D1F880309C
:101920004FEA980623EA0C03C1F88030D1F88430DE
:1019300023EA0C03C1F884300B6823EA0C030B6024
:101940004B6823EA0C034B6059F8263023EA0E0358
:1019500049F8263092E700BF4BF6B85400204FF00C
:10196000030E4FF01C084FF00F09C0F600046FF093
:10197000030A03E0013031FA00F22DD021FA00F71A
:10198000FF07F7D004EBC00654F830707668DBF838
:101990000050012101FA06F39D43CBF80050750079
:1019A0003A680EFA05F52A433A600AEA560208EA4E
:1019B00086063A44D2F820C009FA06F62CEA060652
:1019C0001662BA68AA43BA607A6802999A437A6042
:1019D000FA68AA43FA60CDE704B0BDE8F04F70475B
:1019E0002DE9F04F83B00E68002E00F0178181467C
:1019F0002030019047F67F70C0F22F0000EA992056
:101A0000002200234FF0010B00274FF00008C4F222
:101A10000262CA464FF0000C00900FE00022C4F2B0
:101A200002620E680CF1010C36FA0CF008F10208A3
:101A300007F1040703F1080300F0F0800BFA0CF53E
:101A400016EA0500EDD09145029025D04E6846F08B
:101A50001002122A5ED16FF0030000EA5C020198C6
:101A600007F01C0550F802E00E690F24AC4006F0A8
:101A70000F062EEA0404AE4026438650DAF8002012
:101A800003204E6800FA08F5AA4306F0030505FA9C
:101A900008F52A4349E000BF10684E684BF6B85479
:101AA00006F00106A84306FA0CF6C0F6000430431F
:101AB00004EBCC061060D6F804E06FF0030054F895
:101AC0003CA000EA5E051C20554400EA8E06D5F8CD
:101AD00020B00F22484602FA06F92BEA0902814695
:101AE0000B2000FA06F632432A62DAF800204FEAA9
:101AF0004E05032000FA05F60220B24300FA05F570
:101B00002A43CAF800204E684FF0010B122E11D95B
:101B100036E000BFDAF80020032000FA08F5AA43F7
:101B200006F0030505FA08F52A43E646CAF8002040
:101B3000122E25D80BFA06F212F0061F1AD04FEA21
:101B40004E040320DAF8082000FA04F5C868AA4316
:101B5000A0401043CAF80800DAF804000BFA0EF2AD
:101B60009043320902FA0EF21043032ECAF8040021
:101B700002D005E0032E03D1886801283FF44EAF60
:101B8000DAF80C004FEA4E0203258C689540A84312
:101B900004FA02F21043F200CAF80C007FF53EAFDF
:101BA00042F2000E2CF00300C4F2026E7044026E8A
:101BB00003F018060F25B540AA43009D05FA06F666
:101BC00032430266DEF80000029C4A6840EA0406DE
:101BD000D50258BF20EA0406CEF80060DEF8040003
:101BE000950240EA040658BF20EA0406CEF80460D5
:101BF000DEF88400950340EA040658BF20EA040694
:101C0000CEF88460DEF88000D20340EA040658BFB4
:101C100020EA0406CEF8806000E700BF03B0BDE80C
:101C2000F08F000040F69400C2F200000068704798
:101C300090F84120202A03D190F84020012A01D1B8
:101C400002207047242280F841200268136823F0A4
:101C500001031360136823F480531360136819435E
:101C60001160116841F001011160202180F84110DC
:101C7000002180F8401000207047000090F84120BB
:101C8000202A03D190F84020012A01D10220704778
:101C9000242280F841200268136823F001031360B6
:101CA000136823F4706343EA01211160116841F065
:101CB00001011160202180F84110002180F84010BE
:101CC0000020704790F84110202903D190F840106F
:101CD000012901D102207047242180F841100168B8
:101CE0000A6822F001020A600A6842F480220A604F
:101CF0000A6842F001020A60202180F841100021A8
:101D000080F84010002070477047000070470000C6
:101D1000002804BF01207047242180F84110026888
:101D2000D0F88010136823F00103136029B942F240
:101D30007531C0F60001C0F8801010B50446884720
:101D40000020606484F84100206384F8420084F835
:101D5000400010BDD0F800C0DCF81820DCF80030DE
:101D6000D10503F0800308D53BB1416C41F001017E
:101D700041644FF48071CCF81C10510508D53BB17B
:101D8000416C41F0080141644FF48061CCF81C10B3
:101D9000910508D53BB1416C41F0020141644FF41B
:101DA0000071CCF81C10416C11F00B0F08BF70478C
:101DB00004F0C8BA0268436B91691268002B08BF2F
:101DC0007047184770470000002804BF0120704783
:101DD00010B590F8411000293ED1002180F8401044
:101DE00041F6F561C0F6000141F6F162416542F24B
:101DF000D941C0F60002C0F60001826542F2D54228
:101E0000C16541F6ED61C0F60002C0F60001026650
:101E100041F6FD62416641F6F961C0F60002C0F686
:101E20000001C0E91A2141F6C552C0F60002C16F97
:101E3000026741F6095241F60D53C0F60002C0F6A2
:101E40000003C0E91D2321B942F2A531C0F600010B
:101E5000C167044688472046242180F8411090E855
:101E60001210C3680A68012B22F001020A6024F0F4
:101E700070620A618A6822F400428A6004D14CF4DC
:101E800000428A600AE000BF4CF40442022B8A60E0
:101E900004D14A6842F4006203E000BF4A6822F4B9
:101EA00000624A604A6800F1100442F0007242F495
:101EB00000424A60CA6822F40042CA601CCC1A433D
:101EC00042EA0422C369CA60026A1A430A600A68C5
:101ED00042F001020A6000212022416480F8412082
:101EE000016380F84210002010BD00007047000020
:101EF0007047000070470000704700007047000006
:101F00002DE9F04F81B0044690F84100202807D118
:101F10000A9F4FB10B9E3EB194F8400001280BD1AF
:101F2000022001B0BDE8F08F4FF400706064012022
:101F300001B0BDE8F08F00BF01209A4690468B4665
:101F400084F84000FFF76EFE216805468A69120496
:101F50004BD422200C9A84F8410040204FF0000915
:101F600084F84200C4F8449067626685C4F83490EF
:101F7000584617466FF39F205FFA8AF24B6849F67E
:101F80000006CFF60046834640EA024003EA060216
:101F9000104400F500504860204639462A4604F0B7
:101FA00055FFC0B92068BAF1010F09D04FEA1821D6
:101FB0008162204639462A4604F048FF58B9206815
:101FC0005FFA88F181622046402100223B4600955D
:101FD00004F082FE50B384F84090012001B0BDE8C7
:101FE000F08F00BF88690004B3D5204619212A4626
:101FF00004F06CFC00289AD1FFF714FE401B216806
:102000001A28EFD388690004ECD5606C40F02000FA
:102010006064202084F84100002084F8420084F8A5
:102020004000012001B0BDE8F08F00BF608D40F29C
:10203000000ABC46B0F5807FC0F2FF1A08D32068C2
:102040000AF5105350F8041F01EA0602FF2109E0C7
:10205000618D2068CBB250F8042F324042EA03422F
:102060000AF592331A4342EA0B020BF100784FF063
:10207000FF0906F580666746026021850CE000BF17
:10208000608D21682085C0B24A6848EA004032402D
:1020900010434860608DA8B32046042100223B46CF
:1020A000009504F019FE00287FF441AF2068616AB2
:1020B000406A0870606A218D01306062481E208588
:1020C000618D01396185618D0029E3D00004E1D182
:1020D0002046802100223B46009504F0FDFD0028AB
:1020E0007FF425AF608DB0F5807FC9D32068A4F858
:1020F00028904168314041EA0B0141EA0A01416000
:10210000C8E700BF204639462A4604F061FE002891
:102110007FF40DAF20682021C16142684EF60003B4
:10212000CFF600631A404260002084F8411084F822
:10213000420084F8400001B0BDE8F08F2DE9F04F77
:1021400081B0044690F84100202807D10A9F4FB182
:102150000B9E3EB194F8400001280BD1022001B043
:10216000BDE8F08F4FF400706064012001B0BDE85D
:10217000F08F00BF01209A4691468B4684F84000BC
:10218000FFF750FD216805468A6912044DD42120CD
:1021900084F8410040200C9A84F842004FF0000877
:1021A0006FF39F2B5FFA8AF0C4F8448067626685FC
:1021B000C4F834805F464BEA004049F6004B1646AF
:1021C000CFF6004B4A68ABF580631A40104440F0EC
:1021D000807040F400504860204631462A4604F0A2
:1021E00035FEC0B92068BAF1010F09D04FEA1921B4
:1021F0008162204631462A4604F028FE58B92068FC
:102200005FFA89F1816220468021002233460095E1
:1022100004F062FD50B384F84080012001B0BDE8B5
:10222000F08F00BF88690004B1D5204619212A46E5
:1022300004F04CFB002898D1FFF7F4FC401B216808
:102240001A28EFD388690004ECD5606C40F02000B8
:102250006064202084F84100002084F8420084F863
:102260004000012001B0BDE8F08F00BF608D40F25A
:102270000009B446B0F5807FC0F2FF1908D320688A
:102280004B4650F8041F01EA0B02FF210BE000BF90
:10229000618D2068CBB250F8042F02EA0B0242EAAB
:1022A00003424FF000731A433A4307F1007A4FF0AC
:1022B000FF086646026021850DE000BF608D216841
:1022C0002085C0B24A684AEA004002EA0B02104385
:1022D0004860608D90B3204631462A4604F0B6FD32
:1022E00000287FF442AF606A226810F8011B9162F7
:1022F0006062608D01386085208D01382085618D98
:102300000029E6D00004E4D1204680210022334693
:10231000009504F0E1FC00287FF427AF608DB0F554
:10232000807FCBD32068A4F82880416801EA0B01A4
:10233000394341EA09014160CBE700BF20463146FD
:102340002A4604F045FD00287FF40FAF20682021C5
:10235000C16142684EF60003CFF600631A40426046
:10236000002084F8411084F8420084F8400001B055
:10237000BDE8F08F006842F60001C4F200618842B7
:1023800018BF704740F6A842C4F2026210680321E9
:1023900020F0800340F60000C4F202201360FFF733
:1023A0004FBA0000B0B5B8B0044602A80025083006
:1023B000B8213795CDE93555CDE93355FDF7A4FF63
:1023C000206842F60001C4F20061884202D038B0B1
:1023D000B0BD00BF4FF480700290C0201D9002A8D5
:1023E000039501F071FC002818BFFEF785FB40F64D
:1023F0008C44C4F20264206833A940F004002060D9
:10240000206800F00400019001980320339012200E
:1024100034900020CDE935000420379040F60000CC
:10242000C4F20220FFF7DCFAE06940F08000E061CE
:10243000E06900F080000190019838B0B0BD000064
:10244000AAB190F84130202B0ED10A290FD8DFE82D
:1024500001F0073125292135392D3D191D0000BF17
:1024600042650020704700BF90F8413033B1416CA5
:1024700041F4807141640120704700BF0A2905D0F2
:102480000929F4D1C2670020704700BFC0F880203E
:102490000020704742660020704700BFC2650020E0
:1024A000704700BF02660020704700BF026700202F
:1024B000704700BF82650020704700BF8266002021
:1024C000704700BFC2660020704700BF426700200F
:1024D00070470000704700007047000040F2004164
:1024E000C4F203010A68D2071CBF012070470A68C2
:1024F00022F00402104308600020704740F20041BF
:10250000C4F20301086840F0010200200A6070472D
:1025100040F2080040F69401C2F20000C2F200014D
:1025200000780A68104408607047000080B542F2E5
:102530000000C4F20200016841F4807101600320D0
:1025400000F04AFB02F05CF840F62041C4F2026160
:1025500009684BF66C5201F00F01C0F60002515CA5
:10256000C84040F21401C2F200010860042002F0E9
:1025700091FE0F2000F008F800281CBF012080BD4C
:1025800000F0C6FA002080BDB0B540F20805C2F2E6
:1025900000052978E1B304464EF21000CEF20000A7
:1025A0000068400710D402F0C3FE022824D001289E
:1025B0001AD078BB40F21400C2F2000000682978FB
:1025C0004FF4FA5207E000BF40F21400C2F20000DC
:1025D00000684FF47A72B2FBF1F1B0FBF1F002F057
:1025E00095FEA8B91BE000BF28784FF47A71B1FBC3
:1025F000F0F04FF4FA4106E028784FF47A71B1FB1D
:10260000F0F04FF40041B1FBF0F002F07FFE30B18A
:102610000120B0BD002002F079FE0028F8D14FF073
:10262000FF302146002200F0ABFA00206C60B0BD04
:1026300070470000704700007047000070470000BE
:1026400070470000704700007047000070470000AE
:102650007047000070470000002804BF0120704749
:10266000F0B581B090F84A10002954D1002180F8CB
:10267000491042F2396142F23162C0F60001C0F6FF
:102680000002816542F60531C26542F23D62C0F644
:102690000001C0F60002016642F23561426642F274
:1026A0004562C0F60001C0F60002816642F2416157
:1026B000C26642F60932C0F60001C0F60002C0E967
:1026C0001C1242F6013142F60D32C0F60001C0F68E
:1026D0000002816742F24961C26742F24D62C0F670
:1026E0000001C0F60002C0E9201242F25162C0F6B9
:1026F0000002016DC0F8882042F25562C0F6000267
:10270000C0F88C2021B942F6FD01C0F60001016538
:10271000044688472046022180F84A10D0F800E09D
:10272000416BDEF81020002342F00102CEF81020A9
:102730004FF48072CEF80420CEF8281040F2140135
:10274000C2F20001096841F25972CDF2B712A1FB41
:102750000212910B4FF47A7201FB02F1C1F10404F1
:102760002246DEF80010C90513D4DEF80010C905B2
:102770005CBFDEF800105FEAC1510AD4002A08BF2E
:102780000323DEF8001022B111F4807102F104027B
:10279000E7D0D9B2032903D1032001B0F0BD00BFB7
:1027A0001021CEF80410016A0023CEF81810DEF8CC
:1027B0000010C90613D4DEF80010C9065CBFDEF8AD
:1027C00000105FEAC1610AD4002C08BF0323DEF8C1
:1027D000001024B111F0100104F10404E7D0D9B2C3
:1027E000032903D1032001B0F0BD00BFDEF82C1097
:1027F00089075CBFDEF82C105FEA813176D5DEF800
:102800000C204468D0F828C0012C04D0BCF5000F7F
:1028100003D14FF4000C22F01E0243694FF6FF76FD
:102820008168456A41F23E17B3424FF2FE16CFF679
:10283000397718BF3A40CFF63976324029431143F1
:10284000002C41EA0C0247D0012C44EA020402D0D9
:10285000BCF5000F04D1D0E90312214341EA020480
:102860004FF6FF718B4204D0D0E906121143194391
:102870000C4344F2FF71C4F200618E45CEF80C4067
:1028800010DC49F20041C4F200018E4505D044F24B
:102890000041C4F200618E4513D1D0E90B120A4306
:1028A0000DE000BF44F60001C4F200618E4505D082
:1028B00044F60041C4F200618E4502D1C26ACEF8EE
:1028C0002420012180F84B1080F84C1080F84A1029
:1028D000002001B0F0BD00BF0169C469214341EA95
:1028E0000204BCF5000FB6D0BAE700BFDEF8101046
:1028F00021F00101CEF8101081E7000070470000C0
:1029000010B50223012A80F84A300FD0002A4FD197
:10291000026844F60043D46AC4F200639A4224F089
:102920000D0C4BD04B684CEA830C4EE00268D2F899
:102930002CE0D1E9001C136943F0010313614FF44B
:1029400000235360516340F21401C2F20001096890
:1029500041F25973CDF2B713A1FB0313990B4FF456
:102960007A7301FB03F1C1F104030021146824030D
:1029700010D4146824035CBF14685FEA043409D4DB
:10298000002B08BF0321146823B114F4002403F1C1
:102990000403EBD009064AD1D36A2EF4502141EA50
:1029A0008C419B075CBFD36A5FEA833356D5D16203
:1029B000012180F84A10002010BD00BFDB684C6880
:1029C00023F4001343EA4453D360136943F0010333
:1029D000136108235360096841F25973516140F251
:1029E0001401C2F200010968CDF2B713A1FB031371
:1029F000990B4FF47A7301FB03F1C1F10403002139
:102A00001468240710D4146824075CBF14685FEAB4
:102A1000047409D4002B08BF0321146823B114F0F7
:102A2000080403F10403EBD0C9B2032902D1032047
:102A300010BD00BFD16A89075CBFD16A5FEA8131EE
:102A400006D5C2F82CC0012180F84A10002010BD24
:102A5000116921F001011161F3E700BF136923F04F
:102A600001031361A3E700000246022082F84A0036
:102A7000106829B1012909D16FF4003C02E000BFC0
:102A80006FF0020CC36A03EA0C03C362C36A9B07BC
:102A90005CBFC36A5FEA83330AD54C20002908BFB4
:102AA0004B2001211154002082F84A10704700BFCA
:102AB000036923F001030361EFE700008AB190F896
:102AC0004A30012B0AD1102924BF0120704750231E
:102AD00003EB8101C9B242500020704790F84A30A0
:102AE00013B10120704700BF31B10129F9D1542140
:102AF00042500020704700BF5021425000207047D4
:102B000070470000704700007047000070470000E9
:102B100081B040F69440C4F20260016841F00401C3
:102B20000160006800F004000090009801B0704758
:102B3000002848BF70471C2200F01F0102EAD000A5
:102B4000012202FA01F14EF28012CEF2000281500F
:102B5000BFF34F8FBFF36F8F70470000002848BF4F
:102B600070471C2200F01F0102EAD000012202FA85
:102B700001F14EF20012CEF20002815070470000C7
:102B800010B54EF60C5CCEF2000CDCF80030C3F34E
:102B9000022E8EF00704042C28BF0424BEF1030388
:102BA0004FF0FF3E38BF00230EFA04F4A1439940D2
:102BB0000EFA03F39A43114300F00F0200F1604351
:102BC0000901043A03F564436244002848BF02F156
:102BD0000C03197010BD00004EF60C51CEF200012E
:102BE0000A684FF6FF031A4060F30A2242F0806041
:102BF00040F0FD700860704740F60401C4F20261C5
:102C00000A6822F0004210430860704740F2140145
:102C1000C2F200010A6841F25973CDF2B71340F6CF
:102C20003C01C4F20261A2FB032351F8342C0028BA
:102C30004FEA93301CD042F00202023041F8342CAB
:102C40000A68920732D4012830D00A6892072FD43C
:102C500002282DD00A6892072CD403282AD00A68AB
:102C60009207A0F1040226D404281046E8D122E0FD
:102C700022F00202023041F8342C00BF0A689207A9
:102C800014D5012812D00A68920711D502280FD056
:102C90000A6892070ED503280CD00A689207A0F1A3
:102CA000040208D504281046E8D104E0421E02E0E0
:102CB000821E00E0C21E0020002A08BF03207047C9
:102CC00040F60C0CC4F2026CDCF8302002F4403206
:102CD00082420BD1B0F1011F68D3DCF8000040F450
:102CE0008020CCF800000020704700BFDCF80020F6
:102CF000B0F5803F22F4E02242EA000240F21400E4
:102D000088BF42F48022CCF80020C2F200000068A4
:102D100041F25972CDF2B712A0FB0202900B0346AA
:102D2000DCF80010B3F1FF3218BF012209041ED4F1
:102D3000591C1CD0DCF80010002B1A4618BF0122C9
:102D4000090414D49BB1DCF800105A1E18BF0122EC
:102D500009040CD4012B0AD0DCF800109A1E18BF0D
:102D60000122090403D4022BA3F10403D8D112B326
:102D7000DCF83010421C090416D4AAB1DCF830107B
:102D8000090412D488B1DCF83010090410D40128E9
:102D90000ED0DCF83010021F090402D402281046BD
:102DA000E6D1901C10B906E0104620B10020704713
:102DB00001380028FAD10320704700004FF6FF7158
:102DC00020EA0101B1F5801F0EDBB1F5000F19DA21
:102DD000B1F5801F24D0B1F5001F37D14FF4007139
:102DE00001EA40202BE000BFB1F5803F14D0B1F5DF
:102DF000003F21D0B1F5002F28D1402101EA8010F9
:102E00001DE000BF12D0B1F1807F18BF70474FF4B2
:102E1000805101EA003012E000F007000FE000BF2F
:102E20004FF4807101EA002009E000BF4FF4006117
:102E300001EAC02003E000BF302101EA001040F6A3
:102E40000401C4F202610A68104308607047000080
:102E500040F60400C4F20260016821F400510160F0
:102E6000704700004FF6FF7120EA0101B1F5801FA5
:102E70000EDBB1F5000F19DAB1F5801F24D0B1F5E2
:102E8000001F38D14FF4007101EA40202BE000BF51
:102E9000B1F5803F14D0B1F5003F21D0B1F5002F3E
:102EA00029D1402101EA80101DE000BF12D0B1F10C
:102EB000807F18BF70474FF4805101EA003012E064
:102EC00000F007000FE000BF4FF4807101EA00201E
:102ED00009E000BF4FF4006101EAC02003E000BF39
:102EE000302101EA001040F60401C4F202610A68D0
:102EF00022EA00000860704740F60002C4F2026255
:102F00001368022161F302034EF61051CEF2000164
:102F100013600A68012842F004020A600FBF30BF44
:102F200040BF20BF20BF086820F004000860704741
:102F300040F63C00C4F20260006800F44030704784
:102F400040F62800C4F20260016841F0010101600E
:102F5000704700000279012A08D10222027102683A
:102F60001160012101710020704700BF02218160C2
:102F700001207047B0B54FF00104B0B102210171DA
:102F8000054600F015F8286840F20312016821F0A8
:102F900010010160416821F00B014160416911435A
:102FA00041610020A8602C7100242046B0BD0000C3
:102FB00070470000B0B540F6284EC4F2026EDEF84D
:102FC0000C50DEF80030DEF80010DEF80020DEF8ED
:102FD0001040D206E40804EAE272C1F3032103F0D0
:102FE00003036FF35F3201F1010C00EE102A6FF35F
:102FF0005F25B8EE400ADFE803F003030B0B00BFC8
:103000005EF8201C09025DD4DEF8CC100B045BE0F6
:1030100001EE10CA9FED472AB8EE411ADEF80C10F7
:1030200082EE011A6FF35F2102EE101A9FED403A13
:10303000B8EE422A20EE030A30EE020AB7EE002A6A
:1030400030EE020A21EE000ADEF80010C90360D556
:10305000DEF80C10C1F34621013101EE101AB8EE72
:10306000411A80EE011ABCEEC11A11EE102A02605C
:10307000DEF80010890352D5DEF80C10C1F30641CA
:10308000013101EE101AB8EE411A80EE011ABCEEC1
:10309000C11A11EE102A4260DEF80010490344D52F
:1030A000DEF80C10C1F30661013101EE101AB8EE22
:1030B000411A80EE010ABCEEC00A10EE101A8160BF
:1030C000B0BD00BF5EF8203C4BF63862190FC0F669
:1030D000000202EB810102EE10CA91ED001AB8EE77
:1030E000422AB8EE411A9FED123A81EE021A02EE20
:1030F000105A20EE030AB8EE422A30EE020AB7EE6A
:10310000002A30EE020A20EE010ADEF80010C903A0
:103110009ED400220260DEF800108903ACD40022A5
:103120004260DEF800104903BAD400218160B0BDCE
:10313000000000390024744BB0B540F62C4EC4F2A8
:10314000026EDEF81050DEF80030DEF80010DEF817
:103150000020DEF81440D206E40804EAE272C1F36B
:10316000032103F003036FF35F3201F1010C00EE62
:10317000102A6FF35F25B8EE400ADFE803F003037F
:103180000B0B00BF5EF8241C09025DD4DEF8C810EA
:103190000B045BE001EE10CA9FED472AB8EE411A1E
:1031A000DEF8101082EE011A6FF35F2102EE101AA2
:1031B0009FED403AB8EE422A20EE030A30EE020AB2
:1031C000B7EE002A30EE020A21EE000ADEF8001007
:1031D000C90360D5DEF81010C1F34621013101EEBC
:1031E000101AB8EE411A80EE011ABCEEC11A11EEA7
:1031F000102A0260DEF80010890352D5DEF81010A4
:10320000C1F30641013101EE101AB8EE411A80EE09
:10321000011ABCEEC11A11EE102A4260DEF800104D
:10322000490344D5DEF81010C1F30661013101EE07
:10323000101AB8EE411A80EE010ABCEEC00A10EE78
:10324000101A8160B0BD00BF5EF8243C4BF63862B6
:10325000190FC0F6000202EB810102EE10CA91EDD7
:10326000001AB8EE422AB8EE411A9FED123A81EEEA
:10327000021A02EE105A20EE030AB8EE422A30EE8D
:10328000020AB7EE002A30EE020A20EE010ADEF84A
:103290000010C9039ED400220260DEF800108903EA
:1032A000ACD400224260DEF800104903BAD40021F9
:1032B0008160B0BD000000390024744BB0B540F609
:1032C000304EC4F2026EDEF81450DEF80030DEF844
:1032D0000010DEF80020DEF81840D206E40804EA08
:1032E000E272C1F3032103F003036FF35F3201F1D4
:1032F000010C00EE102A6FF35F25B8EE400ADFE8FC
:1033000003F003030B0B00BF5EF8281C09025DD419
:10331000DEF8C4100B045BE001EE10CA9FED472AF3
:10332000B8EE411ADEF8141082EE011A6FF35F2135
:1033300002EE101A9FED403AB8EE422A20EE030A40
:1033400030EE020AB7EE002A30EE020A21EE000A41
:10335000DEF80010C90360D5DEF81410C1F3462171
:10336000013101EE101AB8EE411A80EE011ABCEEDE
:10337000C11A11EE102A0260DEF80010890352D53E
:10338000DEF81410C1F30641013101EE101AB8EE57
:10339000411A80EE011ABCEEC11A11EE102A4260E9
:1033A000DEF80010490344D5DEF81410C1F30661BD
:1033B000013101EE101AB8EE411A80EE010ABCEE9E
:1033C000C00A10EE101A8160B0BD00BF5EF8283C44
:1033D0004BF63862190FC0F6000202EB810102EED3
:1033E00010CA91ED001AB8EE422AB8EE411A9FEDCC
:1033F000123A81EE021A02EE105A20EE030AB8EEDB
:10340000422A30EE020AB7EE002A30EE020A20EE1F
:10341000010ADEF80010C9039ED400220260DEF823
:1034200000108903ACD400224260DEF8001049038A
:10343000BAD400218160B0BD000000390024744B73
:1034400080B584B0024647F6FF7300209B1A70EBEC
:1034500001033BDA4FF6FF73C0F23F039B1A70EB98
:1034600001036BDB4FF6FF73C0F203039B1A4FF0AF
:10347000000C7CEB010380F201814FF6FF73C0F278
:103480000F039B1A7CEB0103C0F25E8182F4802360
:103490000B4300F0798282F40022114340F006844D
:1034A00040F60040C4F20260D0F8E410026801F473
:1034B0004051920440F17C83002940F0798346F624
:1034C0000040C0F2DC2004B080BD00BFD2F17F0319
:1034D00070EB01035ADA40F2FF339B1A4FF0000CF5
:1034E0007CEB010380F29A8040F6FF739B1A7CEB21
:1034F0000103C0F2058182F480630B4300F0008277
:1035000082F40062114340F0D18340F60040C4F2DF
:103510000260D0F8E81011F4407100F0C982D0F8D0
:10352000F020B1F5807F03D112F0006240F03583C6
:103530000268B1F5007F00F0A681A8E16FF07E433C
:103540009B1A4FF0000C7CEB010380F2BB806FF004
:1035500078439B1A7CEB0103C0F2148182F0007364
:103560000B4300F0278282F08062114340F09E837B
:1035700040F60040C4F20260D0F8E410C1F30151FB
:10358000DFE811F0F00296025202F602B2F1010EEB
:1035900061F1000CDEF11F034FF0000373EB0C032D
:1035A000C0F01681DFE81EF0200082038203920142
:1035B00082038203820378018203820382038203EF
:1035C0008203820382035C018203820382038203FB
:1035D00082038203820382038203820382038203C3
:1035E000820382038203380140F60040C4F2026085
:1035F000D0F8E01001F00301012900F0B3820029A6
:1036000000F050820268022903D112F4806240F077
:10361000F682D0F8F000032991E100BF82F0800328
:103620000B4300F0598282F480730B4300F0028256
:1036300082F40072114340F0398340F60040C4F236
:103640000260D0F8E81011F4406100F0BD82D0F8BB
:10365000F020B1F5806F03D112F0006240F09D823E
:103660000268B1F5006F03D112F4806240F0C782A6
:10367000D0F8F000B1F5406F61E100BF82F4004383
:103680000B4300F0478282F480330B4300F0E48167
:1036900082F40032114340F0098340F60041C4F245
:1036A0000261D1F8E800C0F30242042A00F29082DD
:1036B0004BF68030DFE812F03E02E4019602FA0297
:1036C000640200BF82F480030B4300F0398282F46D
:1036D00000030B4300F0DA8182F08072114340F066
:1036E000E58240F60040C4F20260D0F8E010C1F379
:1036F0000141DFE811F032023702E701DD0100BFCE
:1037000082F480530B4300F0238182F40052114372
:1037100040F0CC8240F60041C4F20261D1F8E400EE
:10372000C0F34212042A00F253824BF68030DFE8E5
:1037300012F053020500A701BD02AB0201A8FFF77A
:10374000BDFD019804B080BD82F480130B4300F0EE
:103750003F8182F40012114340F0A88240F60040FD
:10376000C4F20260D0F8E410490400F18981D0F875
:10377000E010C1F38161DFE811F03701FB0157016F
:103780009B0100BF82F000630B4300F0378182F0A1
:103790008052114340F08A8240F60041C4F2026137
:1037A000D1F8E800D1F8F020920700F4004202D5E9
:1037B000002A00F0FA80D1F8F00000014FF000007C
:1037C00040F17482002A00F07182D1F8F000E6E145
:1037D00082F04002114340F0698240F60041C4F299
:1037E0000261D1F8E00000F44060B0F5806F00F0B5
:1037F000B981002800F0B1810A68B0F5006F03D1EB
:1038000012F4806240F0FB810A68B0F5406F4FF01F
:10381000000000F0418249E240F60041C4F202613A
:10382000D1F8E80000F00700012800F09B81002893
:1038300000F00C810A68022803D112F4806240F083
:10384000DE81D1F8F020032803D112F0020240F00B
:10385000AC800A6804284FF0000000F01D8225E2C9
:1038600040F60040C4F20260D0F8E01001F440716C
:10387000B1F5807F00F07681002900F06E8102684A
:10388000B1F5007F03D112F4806240F0B881D0F826
:10389000F000B1F5407F52E040F60040C4F2026013
:1038A000D0F8E01001F0C001402900F05B81002950
:1038B00000F053810268802903D112F4806240F045
:1038C0009E81D0F8F000C02939E000BF40F60040EA
:1038D000C4F20260D0F8E01001F03001102900F0CD
:1038E0004181002900F039810268202903D112F4B6
:1038F000806240F08481D0F8F00030291FE000BFE2
:1039000040F60040C4F20260D0F8E01011F440210B
:1039100000F02381D0F8F020B1F5802F03D112F010
:10392000006240F03A810268B1F5002F03D112F431
:10393000806240F06481D0F8F000B1F5402F00F0D3
:1039400002024FF0000008BF900304B080BD00BF2A
:1039500040F60041C4F20261D1F8E4000A6800F4C4
:103960000060520502D5002800F04981096800284E
:103970001CBF41F20020C0F27A0001F480610029EE
:1039800008BF084604B080BD40F60040C4F20260A3
:10399000D0F8F010D0F8F02001F44071920740F117
:1039A000F580B1F5807F40F0F1804FF4004004B025
:1039B00080BD00BF40F60040C4F20260D0F8E810BD
:1039C000C1F3C101DFE811F04200CE007E007400B7
:1039D00040F60040C4F20260D0F8E010C1F381610B
:1039E000DFE801F002C62266006846F60041800466
:1039F000C0F2DC2101EAE07004B080BD40F6004076
:103A0000C4F20260D0F8E0100068800301F040705A
:103A100002D5002800F0F380B0F1007F00F0DC80D8
:103A2000B0F1807F40F0D48001A8FFF7C3FA02987C
:103A300004B080BD40F60040C4F20260D0F8E81047
:103A4000C1F38111DFE801F0028E3E3404B0BDE81D
:103A5000804000F0B5BD00BF40F60041C4F20261F5
:103A6000D1F8E40000F00702042A00F2B1804BF61E
:103A70008030DFE812F05F000500B7001B01850011
:103A800001A8FFF797FA019804B080BD40F6004006
:103A9000C4F20260D0F8E010C1F30151DFE801F098
:103AA0000262120804B0BDE8804000F069BD00BFAA
:103AB0000168890640F18C80816809025ED4D0F8E3
:103AC000F400F1E0006842F200414005C0F2F40168
:103AD00001EAE07004B080BD40F60041C4F202612A
:103AE000D1F8E00000F44050B0F5805F3AD00028F3
:103AF00033D00A68B0F5005F03D112F4806240F061
:103B00007E800A68B0F5405F4FF0000000F0C4808E
:103B1000CCE000BF40F60041C4F20261D1F8E800F9
:103B2000C0F30232052A00F29580DFE802F0031BA1
:103B30008D93932904B0BDE8804000F0EBBC00BF3A
:103B400040F60041C4F20261D1F8E00000F44040C8
:103B5000B0F5804F06D000284AD104B0BDE88040BF
:103B600000F0EEBC04B0BDE8804000F049BD00BFED
:103B700001A8FFF7E1FA029804B080BD806898E0E0
:103B80000868800600F18B8022E000BFD0F8F020AA
:103B900012013BD5B1F5007F38D1D0F8F000C0005C
:103BA0004FF0FA0058BF4FF4FA4004B080BD00BF98
:103BB0000268920438D5B1F5805F35D143F20060D8
:103BC000C0F26E1004B080BD016889063FF574AF85
:103BD000002004B080BD00BF01A8FFF7ADFA019836
:103BE00004B080BD01A8FFF769FB029804B080BD56
:103BF0000A68B0F5004F49D112F4806246D042F213
:103C00000040C0F2F40004B080BD00BF0068B1F510
:103C1000407F00F400324FF0000004BF4AF2201051
:103C2000C0F207000CE000BF0068B1F5005F00F4CF
:103C300080624FF0000004BF42F20040C0F2F40086
:103C4000002A08BF104631E001A8FFF775FA039873
:103C500004B080BD00F4E0420B6842F20040B2F5CF
:103C6000405FC0F2F40002D113F400331ED10968A2
:103C700011F4806118BF0146B2F5804F18BF0021D2
:103C8000084604B080BD00BF08681CE70A68B0F5AC
:103C9000404F4FF0000009D112F0200206D0886892
:103CA000000205D4D1F8F400000402E004B080BDA5
:103CB0008868C0F303604BF63861C0F6000151F824
:103CC000200004B080BD00002DE9F04F81B0044613
:103CD000006840F6E046C107C4F202661CD1410705
:103CE00022D4010728D4C1062ED4810634D441063B
:103CF0003AD4010640D4C10546D441024CD48105D2
:103D000052D4410558D401055ED440F628488004B9
:103D1000C4F2026864D48CE03168226D21F00301A2
:103D2000114331604107DCD53168626D21F030010B
:103D3000114331600107D6D53168A26D21F0C00171
:103D400011433160C106D0D53168E26D21F4407174
:103D5000114331608106CAD5B168226E21F0070196
:103D60001143B1604106C4D53168626E21F44061EF
:103D7000114331600106BED53168A26E21F4405175
:103D800011433160C105B8D5B168E26E21F0C001C0
:103D90001143B1604102B2D53168226F21F4404134
:103DA000114331608105ACD5B168626F21F4406187
:103DB0001143B1604105A6D53168A26F21F44021BD
:103DC000114331600105A0D5B168E26F21F4407163
:103DD0001143B16040F628488004C4F2026828D537
:103DE000D4F88C004FEA7011042929D8DFE801F0DB
:103DF00004140C1C1C0000BF04F1080004F070FD4A
:103E00000546B8B90EE000BFD8F8001041F4803183
:103E1000C8F8001008E000BF04F12C0004F0DAFD3F
:103E2000054638B9D4F88C00716821F0E0010843E8
:103E3000706000256078000606D4284623E000BFA5
:103E4000012560780006F8D5D4F8A0004FEA30309C
:103E5000052800F2C7810228284605D0074650B140
:103E6000A178C90713D12FE004F1080004F038FD50
:103E700000280746F4D1B068D4F8A01020F4E04040
:103E80000843B06000202F46A178C9071CD0D4F8A1
:103E90008410042900F29E81DFE811F00C00060076
:103EA00088010C000C0000BFD8F8001041F48031EC
:103EB000C8F80010054640B97068D4F8841020F0A6
:103EC00007000843706000203D46A17889071DD592
:103ED000D4F888104FEA3141042900F27F81DFE8ED
:103EE00011F00B0005006F010B000B00D8F800105B
:103EF00041F48031C8F80010824640B9B068D4F867
:103F0000881020F4E0200843B0600020AA46A17881
:103F1000490701D4574659E0834656F84C0C5FEAEE
:103F200040790BD456F84C0C40F0040046F84C0C89
:103F300056F84C0C00F00400009000984FF6004733
:103F4000CFF6FF7758F8070040F0010048F8070067
:103F5000FDF768FE054600BF58F80700C00707D107
:103F6000FDF760FE401B0228F6D90320032724E05A
:103F70005846BBF1000F5F461FD1306910F4407006
:103F800012D0D4F8B81088420BD03069316920F4CF
:103F9000407041F480313161316921F48031316107
:103FA0003061C00740F026813069D4F8B81020F4A1
:103FB00040700843306100205746B9F1000F05D426
:103FC00056F84C1C21F0040146F84C1CA178C90697
:103FD00018D5D4F898104FEAB161032900F2DC80BB
:103FE000DFE801F00602CE0604F1080004F078FCD8
:103FF000024640B93068D4F8981020F04060084379
:10400000306000203A4621680B031FD5D4F8903069
:1040100033B1B3F5005F18BFB3F5805F40F0C080E7
:10402000054668B1CA0414D48A021BD40A022BD4F0
:10403000CA0132D48A0139D4490140D463E000BFB7
:10404000706820F440501843706000201546CA0480
:10405000EAD57268D4F8943022F400621A43726090
:104060008A02E3D5D4F89C20B2F5804F05D1D8F868
:10407000003043F48033C8F80030736823F4804381
:104080001A4372600A02D3D53268D4F8AC3022F4F5
:1040900040121A433260CA01CCD53268D4F8B0302D
:1040A00022F440321A4332608A01C5D5B268D4F88E
:1040B000B43022F018021A43B260490123D5D4F873
:1040C000A810B1F5401F0FD0B1F5001F05D1D8F8E9
:1040D000001041F40031C8F80010074658B1E178EB
:1040E000090714D437E000BF04F1080004F0F8FB1E
:1040F00000280746F3D17068D4F8A81020F44010C7
:104100000843706000202F46E178090723D5D4F8D2
:10411000801059B1B1F1007F10D0B1F1807F29D169
:10412000D8F8001041F40031C8F8001060B1E1780F
:10413000C90614D401B0BDE8F08F00BF04F1080037
:1041400004F0CEFB0028F2D13068D4F8801020F0C3
:104150004070084330603846E178C906EAD5B16856
:10416000D4F8A42021F400411143B16001B0BDE8AE
:10417000F08F00BF0120E178C906DBD5EFE700BF73
:10418000D8F8001041F40031C8F8001000280246A9
:104190007FF439AF2EE700BF0120012233E700BFD3
:1041A00001200125CA047FF53FAF52E704F12C003E
:1041B00004F010FC002805467FF487AE7CE600BFC3
:1041C00004F12C0004F006FC002882467FF49FAE28
:1041D00094E600BF0120012577E600BF01204FF0E3
:1041E000010A94E601200127A178C9077FF44FAEA8
:1041F0006AE600BFFDF716FD054641F2883B03273E
:10420000306980073FF5D0AEFDF70CFD411B032060
:104210005945F5D9D1E600002DE9F04F81B00028CD
:1042200000F01C8142F20008C4F202080446D8F8EB
:1042300000000D4600F00F0081420DD9D8F80000B3
:1042400020F00F002843C8F80000D8F8000000F064
:104250000F00A84240F00281206840F62049C106C4
:10426000C4F202690DD56169D9F8042002F0700228
:10427000914206D9D9F8042022F070021143C9F8FE
:10428000041001070FD52169D9F80020702303EA33
:104290001212914207D9D9F8002022F4E06242EAD2
:1042A0000111C9F8001041070DD5E168D9F80020C7
:1042B00002F07002914206D9D9F8002022F0700273
:1042C0001143C9F8001081070DD5A168D9F8002065
:1042D00002F00F02914206D9D9F8002022F00F0215
:1042E0001143C9F80010C00774D1206881070DD5AB
:1042F000A168D9F8002002F00F02914206D2D9F845
:10430000002022F00F021143C9F80010D8F8001065
:1043100001F00F018D420DD2D8F8001021F00F01ED
:104320002943C8F80010D8F8001001F00F01A94285
:1043300040F0948041070DD5E168D9F8002002F0E3
:104340007002914206D2D9F8002022F07002114387
:10435000C9F8001001070FD52169D9F80020702392
:1043600003EA1212914207D2D9F8002022F4E06247
:1043700042EA0111C9F80010C0060DD56069D9F8EC
:10438000041001F07001884206D2D9F8041021F01F
:1043900070010843C9F8040000F032F9D9F80010A0
:1043A0004BF66C5201F00F01C0F60002525C40F275
:1043B0000C01C2F20001096840F2140320FA02F273
:1043C000C2F2000308461A6001B0BDE8F04FFEF7E4
:1043D000DBB800BF606840F61C47C4F2026798B3C0
:1043E00002282BD0032835D1D9F874005FEA407A2F
:1043F0000BD4D9F8740040F00400C9F87400D9F85F
:10440000740000F0040000900098FDF70BFC4FF6DC
:10441000F03BCFF6FF7B57F80B1049036AD4BAF193
:10442000000F05D4D9F8740020F00400C9F8740016
:1044300057F81C0C800111D5606813E057F81C0C6C
:1044400080030BD502200DE057F81C0C400705D562
:10445000002007E057F81C1C490503D4012001B0D7
:10446000BDE8F08F396821F0030108433860FDF79B
:10447000D9FB61680646032941F2883A33D0022904
:1044800023D069B9386810F00C0F3FF42EAFFDF758
:10449000C9FB801B50454FF00300F3D9DFE700BF95
:1044A000386800F00C0004283FF41FAFFDF7BAFB9A
:1044B000801B50454FF00300F2D9D0E7FDF7B2FB67
:1044C000801B50454FF00300C9D8386800F00C003D
:1044D0000828F3D109E700BFFDF7A4FB801B504576
:1044E0004FF00300BBD8386800F00C000C28F3D163
:1044F000FBE600BF064600BF57F80B0040043FF53F
:104500008EAFFDF78FFB801B02284FF00300F3D91D
:10451000A5E7000080B500F073F840F62041C4F232
:10452000026109684BF66C5201F00F01C0F60002FF
:10453000515CC84040F21401C2F20001086080BD25
:1045400080B500F05DF840F62041C4F202610A68CF
:104550004BF66C5302F00F02C0F600039A5CD04099
:1045600040F21402C2F20002106009684BF67C525D
:10457000C1F30211C0F60002515CC84080BD0000CA
:1045800080B500F03DF840F62041C4F202610A68AF
:104590004BF66C5302F00F02C0F600039A5CD04059
:1045A00040F21402C2F20002106009684BF67C521D
:1045B000C1F30221C0F60002515CC84080BD00007A
:1045C00080B500F01DF840F62041C4F202610A688F
:1045D0004BF66C5302F00F02C0F600039A5CD04019
:1045E00040F21402C2F20002106049684BF67C529D
:1045F000C1F30211C0F60002515CC84080BD00004A
:1046000040F62841C4F2026151F80C0C10F00C0283
:10461000086815D00C2A04BF00F0030001280FD051
:1046200051F80C0C9FED350A00F00C00042842F202
:104630000040C0F2F4001DD0082A18BF002019E085
:1046400051F8200C000205D4D1F8CC00C0F303309F
:1046500003E000BF51F8200C000F4BF63863C0F6A2
:10466000000353F82000002A00EE100A18BF0020B3
:10467000B8EE400A0C2A18BF7047D1F800C00A688B
:104680000B68C2F303220869013201EE102AC00848
:10469000B8EE411ADB069FED1B2A00EAE3705FEAE1
:1046A0008C7258BFB0EE402A82EE010A6FF35F3081
:1046B00001EE100AC868B8EE411A6FF35F2002EEEF
:1046C000100A9FED0F3AB8EE422A21EE031AC8688D
:1046D00031EE021AB7EE002AC0F3066031EE021A7C
:1046E000013020EE010A01EE100AB8EE411A80EE08
:1046F000010ABCEEC00A10EE100A7047000000006C
:10470000000000390024744B002804BF01207047CA
:104710002DE9F04381B040F694490446C4F20269A1
:1047200059F8780C59F86C1C227800F00C07D00668
:1047300001F0030822D42078C00779D0082F73D065
:104740000C2F08BFB8F1030F6ED040F60046C4F23C
:10475000026661683068B1F5803F00F0DF82B1F534
:10476000A81F00F0D382B1F5A02F40F0E98240F4F9
:1047700080203060306820F48010CDE217B30C2F19
:1047800008BFB8F1010F1DD040F60046C4F2026622
:10479000E1693068002900F0CD8140F0010030600F
:1047A000FDF740FA054600BF3068400700F1D481AC
:1047B000FDF738FA401B02284FF00300F4D900F04F
:1047C0003ABD00BFE069002800F0D68340F60045FE
:1047D000C4F20265666AA86800025ABFD9F8600090
:1047E0000004A86800F07040864240F27781002FF4
:1047F00040F03983D9F80000400700F11983D9F857
:10480000000040F00400C9F80000D9F8000000F0F2
:10481000040000900098FEF78BFBD9F8001021F0FF
:104820000401C9F8001005E36068002800F0A483C3
:10483000207880072FD5042F20D00C2F08BFB8F187
:10484000020F1BD040F60046C4F20266E1683068F1
:10485000002900F0378240F480703060FDF7E2F903
:10486000054600BF306840050CD4FDF7DBF9401B5E
:1048700002284FF00300F5D900F0DDBCE068002805
:1048800000F07A8359F8840C216920F4F81040EA8A
:10489000014049F8840C207840F600470007C4F234
:1048A000026771D42078400700F1C6802078800626
:1048B00000F128812078000600F16281207840060E
:1048C00000F1AC81A56B002D00F0D28459F8780C72
:1048D00000F00C000C2840F0618259F86C1C59F86B
:1048E000600C012D00F04883E26B01F0030393425A
:1048F00040F04283226CC1F30323013A934240F01B
:104900003B83626C01F47041914240F03583A26CAC
:1049100001466FF35F21013A914240F02D83E16C33
:10492000C0F3462201398A4240F02683216DC0F34C
:10493000064201398A4240F01F83616DC0F3066070
:104940000139884240F0188359F85C0CE16DC0F3DE
:10495000CC00884200F08C8459F86C0C20F01000D8
:1049600049F86C0CFDF75EF90546FDF75BF9A842C6
:10497000FBD0E06DC00049F85C0C59F86C0C40F0BD
:10498000100000F073BC00BFD9F800005FEA407867
:104990000BD4D9F8000040F00400C9F80000D9F8A1
:1049A000000000F00400009000984FF62846CFF673
:1049B000FF76B859C00713D1B85940F00100B8517B
:1049C000FDF730F9054600BFB859C00708D1FDF71B
:1049D00029F9401B0228F7D9032001B0BDE8F08374
:1049E0006069D9F85C10002800F0E280A06901F04D
:1049F0008052904200F0328301F04062B2F1006FC9
:104A000000F0BA82490140F12283D9F85C0020F01D
:104A1000A050C9F85C00FDF705F90546D9F85C001F
:104A2000000140F11383FDF7FDF8401B05284FF00E
:104A30000300F3D900F0FFBBD9F800005FEA40782B
:104A40000BD4D9F8000040F00400C9F80000D9F8F0
:104A5000000000F00400009000984FF62846CFF6C2
:104A6000FF76B859C00713D1B85940F00100B851CA
:104A7000FDF7D8F8054600BFB859C00708D1FDF7C3
:104A8000D1F8401B02284FF00300F5D9D3E300BF53
:104A9000A068C10740F0A280D9F85C10002821F07E
:104AA0000101C9F85C10D9F85C1021F00401C9F8C3
:104AB0005C1040F0A180FDF7B5F8054641F288365C
:104AC000D9F85C00800740F19782FDF7ABF8401BF6
:104AD000B0424FF00300F3D9ADE300BFA868B6F1D0
:104AE000404F40F40000A860A86820F0704040EA01
:104AF0000600A860C0F0AC80E868216A20F01F00C2
:104B00000843F7E1E16A3868002900F0ED8040F4DD
:104B100080503860FDF786F8054600BF386880048D
:104B20003FF5C8AEFDF77EF8401B02284FF00300AA
:104B3000F4D980E320F001003060FDF773F80546FA
:104B4000306840077FF5F7ADFDF76CF8401B022891
:104B50004FF00300F4D96EE3B06840F40000B06099
:104B6000B168606A21F070410143B0F1404FB1601B
:104B7000C0F09880F068216A20F01F00084337E2F7
:104B8000216B3868002900F0F78040F480403860DD
:104B9000FDF748F8054600BF386800043FF58EAEC3
:104BA000FDF740F8401B02284FF00300F4D942E320
:104BB00021F0A050C9F85C00FDF734F8054600BFAD
:104BC000D9F85C00000140F15F82FDF72BF8401B33
:104BD00005284FF00300F3D92DE300BFD9F85C108E
:104BE000400705D541F00400C9F85C00D9F85C1015
:104BF00041F00100C9F85C00FDF714F8054641F2E8
:104C0000883600BFD9F85C00800731D4FDF70AF878
:104C1000401BB0424FF00300F4D90CE3606B002856
:104C200000F0F280B86840F40000B860B968D4E9D8
:104C3000090221F07061B0F1404F41EA0201B96010
:104C4000C0F04481F868216A20F01F000843DFE2C9
:104C5000B6F1FF3F40F32881E968206AB6F1804F42
:104C6000C0F0448121F4F84141EA802042E100BFD4
:104C7000A168D9F85C00090600F1B28020F080003C
:104C800041F28836C9F85C00D9F85C00000540F1B3
:104C9000B881FCF7C7FF401BB0424FF00300F3D9C7
:104CA000C9E200BFB0F1FF3F40F37281F268216AB0
:104CB000B0F1804FC0F0988122F4F84040EA8120A2
:104CC00096E100BF20F480703060FCF7ABFF054632
:104CD000306840057FF5DFADFCF7A4FF401B0228DC
:104CE0004FF00300F4D9A6E220F480503860FCF7BE
:104CF00099FF0546386880047FF5DCADFCF792FF2C
:104D0000401B02284FF00300F4D994E240F48020C5
:104D10003060306840F480103060306840F480309B
:104D20003060FCF77FFF0546306880033FF580ADBB
:104D3000FCF778FF401B64284FF00300F4D97AE2B7
:104D400020F4803030603068002920F4802030600A
:104D5000306820F480103060E3D1FCF763FF054633
:104D6000306880037FF564ADFCF75CFF401B64286E
:104D70004FF00300F4D95EE220F480403860FCF785
:104D800051FF0546386800047FF598ADFCF74AFFEF
:104D9000401B02284FF00300F4D94CE2386820F0A1
:104DA00080703860FCF73EFF022D05460CD1386854
:104DB000800140F17581FCF735FF401B02284FF060
:104DC0000300F4D937E200BF3868800140F1F68172
:104DD000FCF728FF401B02284FF00300F4D92AE219
:104DE00040F0800041F28836C9F85C00D9F85C00D8
:104DF000000500F10681FCF715FF401BB0424FF0A3
:104E00000300F3D917E200BF386820F010003860C3
:104E1000FCF708FF054600BF386880067FF552ADF5
:104E2000FCF700FF401B02284FF00300F4D902E218
:104E3000FEF77EF820F48031B1F5003F3CD100212F
:104E4000B6F1805F38BF012142F20000C4F20200D7
:104E5000026822F00F020A440260006800F00F00AE
:104E6000884240F08980A86840F40000A860A968E2
:104E7000606A21F070410143B0F1404FA96005D351
:104E8000E868216A20F01F0008438DE0B0F1FF3F81
:104E900076DDEA68216AB0F1804FC0F0818022F4AB
:104EA000F84040EA81207FE0E868216A20F47870C9
:104EB00040EA41101EE000BF0021B1EB167F40F038
:104EC000AD80B0F5803F57D10321BDE7B0F1FF3F82
:104ED00040F37C81FA68216AB0F1804FC0F0948180
:104EE00022F4F84040EA812092E100BF21F47821C9
:104EF00041EAC030002FE86057D1D9F800004007E0
:104F000014D4D9F8000040F00400C9F80000D9F822
:104F1000000000F0040000900098FEF709F8D9F8AE
:104F2000001021F00401C9F8001001E0FEF700F8BC
:104F300020F48031B1F5003F14D10021B6F1805F3B
:104F400038BF012142F20000C4F20200026822F0E0
:104F50000F020A440260006800F00F00884224D06B
:104F60000AE000BF0021B1EB167F63D1B0F5803FAE
:104F700002D10321E6E700BF012001B0BDE8F083C4
:104F8000E868216A20F4787040EA41100CE000BF24
:104F9000F068216A20F4787040EA411028E000BFF0
:104FA00022F4782040EAC130E860FFF729FB59F885
:104FB000741C4BF66C5201F00F01C0F60002515CFC
:104FC00040F2140220FA01F140F20C00C2F200009B
:104FD0000068C2F200021160FDF7D6FA002840F026
:104FE0002A81FFF7A8BB00BF22F4782040EAC13035
:104FF000F060FFF7A0BB00BFD9F85C00000600F12D
:10500000ED80B8F1000F3FF551ACD9F8000020F069
:105010000400C9F80000FFF749BC00BFB6F1005F0B
:1050200040F20C8100287FF40FAFB6F1405F98BFCB
:10503000012109E7B6F1005F40F20A8100287FF400
:1050400081AFB6F1405F98BF01217BE7A069D9F835
:105050005C1021F080510843C9F85C00D9F85C006D
:1050600040F08060C9F85C00FCF7DCFD054600BF3D
:10507000D9F85C00000107D4FCF7D4FD401B0528DB
:105080004FF00300F4D9D6E0B8F1000F3FF50AACB9
:10509000D9F8000020F00400C9F80000FFF702BCB6
:1050A000D9F800005FEA407C0BD4D9F8001041F039
:1050B0000401C9F80010D9F8001001F004010091B2
:1050C00000994FF60C48CFF6FF7857F808E057F8EC
:1050D00008304FF6037623F4802347F8083059F858
:1050E0006C3CD4E91102B343D4E90F656FF0FF01C2
:1050F0003343184301EB05214FF47E43084349F83D
:105100006C0C59F8600C0021C8F280010840511E57
:10511000E26C4FF4FE0503EB4222236D6FF35F2137
:1051200005EB0343656D92B24FF0FE4606EB056555
:10513000084403F4FE03104405F0FE4518442844D7
:1051400049F8600C59F86C0C20F0100049F86C0C10
:10515000E06DC00049F85C0C59F86C0C40F0100090
:1051600049F86C0C59F86C0CA16D20F00C00084348
:105170005FEA4E3149F86C0C05D557F8080040F449
:10518000802047F80800BCF1000F05D4D9F80000D2
:1051900020F00400C9F80000386840F080703860E2
:1051A000FCF740FD0446386880015BD4FCF73AFD0B
:1051B000001B02284FF00300F5D93CE059F86C0CB5
:1051C0004FF6FC71CFF6F87108404FE0F868216A9D
:1051D00020F4787040EA41101AE000BFD9F85C0072
:1051E00041F2883620F08000C9F85C00D9F85C00F4
:1051F00000057FF506AFFCF715FD401BB0424FF0F0
:105200000300F3D917E000BF22F4782040EAC13050
:10521000F860386840F010003860FCF703FD054680
:10522000386880063FF54EABFCF7FCFC401B0228BB
:105230004FF00300F4D901B0BDE8F083B6F1805F10
:105240001AD10221B0F5803F08BF0121FCE500BF63
:10525000B6F1805F12D10221B0F5803F08BF012175
:1052600070E600BF59F86C0C40F4802049F86C0CD3
:10527000002001B0BDE8F0830121E5E5012161E6F0
:105280004EF21000CEF20000016841F00201016010
:1052900070470000042888BF7047DFE800F0031B58
:1052A00013352D004EF21000CEF20000016821F0FF
:1052B0000401016040F6E040C4F20260016821F49C
:1052C000400120E04EF21000CEF200000168022200
:1052D00006E000BF4EF21000CEF20000016801228D
:1052E00021F00401016040F6E040C4F20260016870
:1052F00062F3975107E000BF4EF21000CEF20000BB
:10530000016841F00401016070470000411E002067
:10531000B0EB116F1CBF012070474EF21002CEF2AD
:10532000000251609060116841F003011160704704
:105330004EF21000CEF200000068400744BF042087
:10534000704740F6E040C4F20260006802A1C0F37A
:10535000815051F82000704700000000010000005B
:1053600002000000000000004EF21000CEF200002B
:10537000016821F0020101607047000090F884107C
:10538000012904BF022070472421C0F88810016859
:105390000A680B6822F0005223F001030B6000231F
:1053A00043660A602021C0F8881080F8843000200D
:1053B00070470000704700007047000090F884209C
:1053C000012A04BF02207047B0B52422C0F888200B
:1053D0000268D0F864E0D2F800C01368BEF1000F94
:1053E00023F001031360936823F0606341EA030133
:1053F000916019D0936891684BF6B06E490FC0F672
:10540000000E4BF6B8651EF80140C0F60005C3F368
:105410004263695CE400B4FBF1F11EF80340EB5C0D
:10542000E500B5FBF3F301E001210123A0F86A10C8
:105430002021A0F86830C2F800C0C0F88810002110
:1054400080F884100020B0BD90F88420012A04BFA9
:1054500002207047B0B52422C0F888200268D0F836
:1054600064E0D2F800C01368BEF1000F23F001031E
:105470001360936823F0604341EA0301916019D0FF
:10548000936891684BF6B06E490FC0F6000E4BF66C
:10549000B8651EF80140C0F60005C3F34263695CBD
:1054A000E400B4FBF1F11EF80340EB5CE500B5FB52
:1054B000F3F301E001210123A0F86A102021A0F8F4
:1054C0006830C2F800C0C0F88810002180F884104D
:1054D0000020B0BD704700007047000010B500BF4D
:1054E000016851E8001F026821F4907142E800133E
:1054F000DBB1016851E8001F026821F4907142E8B5
:10550000001393B1016851E8001F026821F4907103
:1055100042E800134BB1016851E8001F026821F412
:10552000907142E80013002BDAD14FF6FE71CEF6EF
:10553000FF7100BF026852E8022F03680A4043E887
:105540000224C4B1026852E8022F03680A4043E80B
:10555000022484B1026852E8022F03680A4043E83B
:10556000022444B1026852E8022F03680A4043E86B
:105570000224002CDED1C16E012924D1016851E83A
:10558000001F026821F0100142E80013DBB101683E
:1055900051E8001F026821F0100142E8001393B1A6
:1055A000016851E8001F026821F0100142E8001371
:1055B0004BB1016851E8001F026821F0100142E878
:1055C0000013002BDAD101688A6852060AD400223F
:1055D0000F23A0F85E2082650B622021C0F88C109A
:1055E000C26646E0016851E8021F026821F04001EE
:1055F00042E80213DBB1016851E8021F026821F0A2
:10560000400142E8021393B1016851E8021F0268A9
:1056100021F0400142E802134BB1016851E8021F3A
:10562000026821F0400142E80213002BDAD1D0F8E1
:10563000801079B1044649F6C100C0F60000C86682
:105640000846FBF7C9FFB0B1D4F88000C16E8847A7
:10565000002010BD0021A0F85E1002680F238165B4
:105660001362936943F0080393612022C0F88C20F1
:10567000C166FFF731FF002010BD00007047000039
:1056800070B5026840F62F04D369116896681C4013
:10569000202C0BD101F0200406F080552D1916D0D6
:1056A000416F61B3BDE87040084700BF40F60F0589
:1056B0002B420CD00125C1F2000506EA050C40F290
:1056C0002015C0F200450D4015EB0C0556D1C46EF7
:1056D000DD0615D5012C13D111F0100510D01021C5
:1056E00011629168490655D4B0F85C10B0F85E209C
:1056F000B0F85E30002B18BF914240F0578270BD69
:105700001A0606D501F0800206F40006921940F050
:105710001B815A0640F1008111F0400200F0FC802C
:10572000016851E8001F026821F0400142E80013BF
:10573000DBB1016851E8001F026821F0400142E836
:10574000001393B1016851E8001F026821F0400185
:1057500042E800134BB1016851E8001F026821F0D4
:10576000400142E80013002BDAD12021C0F8881054
:1057700000218167BDE8704000F01EBDDD0718BF45
:1057800011F4807540F0F4809D0706F0010E00F1E1
:10579000FB8004E1D0F8802011688B6CB0F85C408D
:1057A00099B2002900F0C280A14280F0BF80A0F829
:1057B0005E30116D812900F0A38000BF016851E8BF
:1057C000001F026821F4807142E80013E3B1016810
:1057D00051E8001F026821F4807142E800139BB178
:1057E000016851E8001F026821F4807142E800134B
:1057F00053B1016851E8001F026821F4807142E84A
:105800000013002BDAD100BF016851E8021F0268C3
:1058100021F0010142E80213BBB3016851E8021F05
:10582000026821F0010142E8021373B3016851E8F4
:10583000021F026821F0010142E802132BB3016844
:1058400051E8021F026821F0010142E80213002B17
:10585000DAD11AE0016851E8021F026821F0400124
:1058600042E80213DBB1016851E8021F026821F02F
:10587000400142E8021393B1016851E8021F026837
:1058800021F0400142E802134BB1016851E8021FC8
:10589000026821F0400142E80213002BDAD12021F6
:1058A000C0F88C100021C166016851E8001F026831
:1058B00021F0100142E80013DBB1016851E8001F3C
:1058C000026821F0100142E8001393B1016851E829
:1058D000001F026821F0100142E800134BB101687B
:1058E00051E8001F026821F0100142E80013002B6C
:1058F000DAD1D0F8801004460846FBF719FE20469E
:1059000002210167B0F85C10B0F85E20891A89B2F4
:10591000BDE87040FFF74EBD1A021DD511F0804260
:105920001AD0BDE87040FFF7D5BD00BF8C427FF4B0
:10593000E6AE126D812A7FF4E2AE02220267BDE874
:105940007040FFF737BD00BF816F00293FF4D7AE2D
:10595000BDE87040084700BFDA017FF5D0AEB1F175
:10596000FF3FC8BF70BDBDE87040FFF725BD00BF59
:1059700001251562D0F8905045F00105C0F890500F
:105980009D0706F0010E0AD5BEF1000F07D00224D4
:105990001462D0F8904044F00404C0F890405C07D2
:1059A0000AD5BEF1000F07D004251562D0F890503B
:1059B00045F00205C0F890501D070CD501F02005F8
:1059C00055EA0C0507D008251562D0F8905045F02F
:1059D0000805C0F890501D050BD511F0806508D062
:1059E0004FF400651562D0F8905045F02005C0F8DE
:1059F0009050D0F89050002D3FF481AE9B060BD50F
:105A000001F0200106F08053C91805D0416F19B18B
:105A10000446884722682046D0F89010926801F02A
:105A2000280102F04002891806D10446FFF726FE3D
:105A30000020C4F8900070BD016851E8001F0268A2
:105A400021F4907142E80013DBB1016851E8001FB6
:105A5000026821F4907142E8001393B1016851E8A3
:105A6000001F026821F4907142E800134BB10168F5
:105A700051E8001F026821F4907142E80013002BE6
:105A8000DAD14FF6FE71CEF6FF7100BF026852E820
:105A9000022F03680A4043E80226C6B1026852E8B2
:105AA000022F03680A4043E8022686B1026852E8E2
:105AB000022F03680A4043E8022646B1026852E812
:105AC000022F03680A4043E80226002EDED1C16E91
:105AD000012924D1016851E8001F026821F010015A
